{
  "_format": "hh-sol-artifact-1",
  "contractName": "Counter",
  "sourceName": "contracts/Counter.sol",
  "abi": [
    {
      "inputs": [],
      "name": "getCount",
      "outputs": [
        {
          "internalType": "uint256",
          "name": "",
          "type": "uint256"
        }
      ],
      "stateMutability": "view",
      "type": "function"
    },
    {
      "inputs": [],
      "name": "increment",
      "outputs": [],
      "stateMutability": "nonpayable",
      "type": "function"
    },
    {
      "inputs": [],
      "name": "initCounter",
      "outputs": [],
      "stateMutability": "nonpayable",
      "type": "function"
    },
    {
      "inputs": [],
      "name": "sayhello",
      "outputs": [
        {
          "internalType": "string",
          "name": "",
          "type": "string"
        }
      ],
      "stateMutability": "view",
      "type": "function"
    }
  ],
  "bytecode": "0x608060405234801561001057600080fd5b506102b1806100206000396000f3fe608060405234801561001057600080fd5b506004361061004c5760003560e01c806327a03cd714610051578063a87d942c1461006f578063d09de08a1461008d578063f2741c3814610097575b600080fd5b6100596100a1565b604051610066919061014f565b60405180910390f35b6100776100de565b6040516100849190610171565b60405180910390f35b6100956100e7565b005b61009f6100fe565b005b60606040518060400160405280600a81526020017f68656c6c6f776f726c6400000000000000000000000000000000000000000000815250905090565b60006001905090565b60016000546100f691906101a8565b600081905550565b60008081905550565b60006101128261018c565b61011c8185610197565b935061012c818560208601610208565b6101358161026a565b840191505092915050565b610149816101fe565b82525050565b600060208201905081810360008301526101698184610107565b905092915050565b60006020820190506101866000830184610140565b92915050565b600081519050919050565b600082825260208201905092915050565b60006101b3826101fe565b91506101be836101fe565b9250827fffffffffffffffffffffffffffffffffffffffffffffffffffffffffffffffff038211156101f3576101f261023b565b5b828201905092915050565b6000819050919050565b60005b8381101561022657808201518184015260208101905061020b565b83811115610235576000848401525b50505050565b7f4e487b7100000000000000000000000000000000000000000000000000000000600052601160045260246000fd5b6000601f19601f830116905091905056fea264697066735822122025827def15dd66a05b3c64b276db5366bf843cc4f5ec1c82ba1013813f3d2a0b64736f6c63430008040033",
  "linkReferences": {},
  "deployedLinkReferences": {}
}